:020000040800F2
:10000000F831002069020008B7060008AF060008B2
:10001000B3060008650500088B0D0008000000000D
:10002000000000000000000000000000D1010008F6
:1000300069050008000000001502000861090008B9
:10004000830200088302000883020008830200087C
:10005000830200088302000883020008830200086C
:10006000830200088302000883020008830200085C
:10007000830200088302000883020008830200084C
:10008000830200088302000883020008830200083C
:10009000830200088302000883020008830200082C
:1000A000830200088302000883020008830200081C
:1000B000830200088302000883020008830200080C
:1000C00083020008830200088302000883020008FC
:1000D00083020008450B0008830200088302000821
:1000E00083020008830200088302000883020008DC
:1000F00083020008830200088302000883020008CC
:1001000083020008830200088302000883020008BB
:100110008302000883020008F50900088302000832
:10012000830200088302000883020008830200089B
:1001300000F002F800F03CF80AA090E8000C8244BD
:100140008344AAF10107DA4501D100F031F8AFF29A
:10015000090EBAE80F0013F0010F18BFFB1A43F0A5
:10016000010318473429000054290000103A24BF25
:1001700078C878C1FAD8520724BF30C830C144BF0C
:1001800004680C607047000000230024002500264E
:10019000103A28BF78C1FBD8520728BF30C148BFEA
:1001A0000B607047002070471FB51FBD10B510BD14
:1001B00000F0A6F91146FFF7F7FF00F017FF00F077
:1001C000C4F903B4FFF7F2FF03BC00F0E7FD000041
:1001D000224B19680868B0E8F00F80F30988BFF374
:1001E0006F8F4FF0000080F311884EF00D0E7047B6
:1001F0000000000006480068006880F3088862B6C6
:1002000061B6BFF34F8FBFF36F8F00DF00BF00BF3A
:1002100008ED00E0EFF30980BFF36F8F0F4B1A6812
:1002200020E9F00F106008B54FF0BF0080F311888F
:10023000BFF34F8FBFF36F8F01F038FF4FF0000017
:1002400080F31188BDE8084019680868B0E8F00F2D
:1002500080F30988BFF36F8F704700BF5000002004
:10026000EFF30580704700000948804709480047C0
:10027000FEE7FEE7FEE7FEE7FEE7FEE7FEE7FEE756
:10028000FEE7FEE704480549054A064B70470000B3
:100290009509000831010008F82B0020F8310020F2
:1002A000F82D0020F82D0020704700000FB40449FD
:1002B00010B503AA029800F049F810BC5DF814FBD1
:1002C000000000204FF0000200B513469446964609
:1002D000203922BFA0E80C50A0E80C50B1F1200159
:1002E000BFF4F7AF090728BFA0E80C5048BF0CC007
:1002F0005DF804EB890028BF40F8042B08BF704765
:1003000048BF20F8022B11F0804F18BF00F8012BD6
:1003100070477047704770477047000001694A1C7A
:1003200002610878704700B58FB0CDE90131002136
:10033000059105497944CDE903101146684600F05E
:1003400017F80FB000BD0000E5FFFFFF074B70B5C9
:100350000D467B44FFF7E7FF0446284600F0CCF843
:1003600010B14FF0FF3070BD204670BDEF0A0000A5
:100370002DE9F05F894604464FF0000ADFF874B1BA
:10038000FB44C0F820A02046E1688847002874D0CC
:10039000252806D0D4E901219047206A401C20621C
:1003A000F1E700265F462046E16888472028054699
:1003B00007DB312D05D2781910F8200C08B106435F
:1003C000F1E7B00701D526F00406C4F81CA0002709
:1003D000C4F818A02A2D09D0284600F0D8FC38B35C
:1003E00004EB8708303DC8F8185019E059F8041B91
:1003F000204604EB87029161E1688847012F05469A
:1004000018D1E069002820DA26F020061DE0D8F88F
:10041000180000EB800005EB40003038C8F81800E9
:100420002046E1688847054600F0B1FC0028EED17F
:10043000012F0AD02E2D08D12046E16888477F1C65
:100440000546022F46F02006C4DBA069002803DA27
:10045000404246F00106A061F00701D026F01006E8
:100460006C2D0BD0682D09D04C2D39D06A2D35D08C
:10047000742D35D07A2D33D016E038E0E1682F4660
:1004800020468847B842054609D16C2F26D04FF444
:100490008060E168064320468847054604E06C2FEB
:1004A0001AD04FF4807006430DB3A5F1410019280E
:1004B00002D8203546F400664A4629462046266082
:1004C0004E46FFF76FFE80B101280BD0F61D26F0D7
:1004D000070000F1080956E74020E4E78020D8E74C
:1004E0000020D6E706F104094DE7284652E7206AC6
:1004F000BDE8F09F00270000007B00F080007047FF
:10050000754600F02BF8AE4605006946534620F0CC
:100510000700854618B020B5FFF7B4FEBDE82040BF
:100520004FF000064FF000074FF000084FF0000BAF
:1005300021F00701AC46ACE8C009ACE8C009ACE862
:10054000C009ACE8C0098D46704710B50446AFF34A
:1005500000802046BDE81040FFF733BE00487047DA
:10056000942B002000BFFEE770472DE9F0410246C2
:1005700000250026002000230024002791F803C056
:100580000CF00F0591F803C00CF0100CBCF1000F3B
:1005900003D091F802C04CEA050591F800C0BCF107
:1005A000000F31D0146800202BE04FF0010C0CFA42
:1005B00000F3B1F800C00CEA03069E4220D183008C
:1005C0004FF00F0C0CFA03F7BC4305FA03FC4CEA9E
:1005D000040491F803C0BCF1280F06D14FF0010CC0
:1005E0000CFA00FCC2F814C00AE091F803C0BCF198
:1005F000480F05D14FF0010C0CFA00FCC2F810C0F6
:10060000401C0828D1D31460B1F800C0BCF1FF0F22
:1006100034DD546800202EE000F1080C4FF0010892
:1006200008FA0CF3B1F800C00CEA03069E4221D18F
:1006300083004FF00F0C0CFA03F7BC4305FA03FCE0
:100640004CEA040491F803C0BCF1280F05D100F175
:10065000080C08FA0CF8C2F8148091F803C0BCF139
:10066000480F07D100F1080C4FF0010808FA0CF808
:10067000C2F81080401C0828CED35460BDE8F08139
:100680000246002093680B400BB1012000E00020DF
:10069000704702460020D3680B400BB1012000E0F8
:1006A000002070470AB1016100E04161704700BF5E
:1006B000FEE700BFFEE7704770B5002100230F2260
:1006C000C47804B3154C246804F4E064C4F5E06411
:1006D000210AC1F10403CA40447804FA03F1847882
:1006E0001440214309010E4C0678A155047804F00A
:1006F0001F050124AC4005786D11AD0005F1E02522
:10070000C5F8004109E0047804F01F050124AC405D
:10071000044D0678761145F8264070BD0CED00E0DA
:1007200000E400E080E100E002490143024A116078
:10073000704700000000FA050CED00E029B1064A00
:10074000D2690243044BDA6104E0034AD26982436E
:10075000014BDA61704700000010024029B1064ADF
:1007600092690243044B9A6104E0034A926982430E
:10077000014B9A61704700000010024030B5002123
:100780000022002400232D4D6D6805F00C0121B1DD
:10079000042905D0082923D105E0294D056022E070
:1007A000274D05601FE0254D6D6805F47012234D3F
:1007B0006D6805F48034022505EB92421CB9214D89
:1007C000554305600BE01D4D6D6805F400351DB106
:1007D0001C4D5543056002E0194D5543056002E08C
:1007E000174D056000BF00BF144D6D6805F0F001A6
:1007F0000909154D6B5C0568DD4045600F4D6D685E
:1008000005F4E061090A104D6B5C4568DD408560C8
:100810000A4D6D6805F46051C90A0B4D6B5C456863
:10082000DD40C560054D6D6805F44041890B074DFD
:100830006B5CC568B5FBF3F5056130BD0010024087
:1008400000127A0000093D000E0000201E0000206A
:1008500010B500F001F810BD0CB50020019000901B
:100860003348006840F480303149086000BF3048A8
:10087000006800F4003000900198401C019000983E
:1008800018B90198B0F5A06FF1D12948006800F4BB
:10089000003010B10120009001E00020009000988D
:1008A000012843D12348006840F010002149086026
:1008B0000846006820F0030008600846006840F021
:1008C000020008601A4840681949486008464068B4
:1008D00048600846406840F48060486008464068C8
:1008E00020F47C1048600846406840F4E8104860F6
:1008F0000846006840F08070086000BF0C4800683F
:1009000000F000700028F9D00948406820F003008A
:10091000074948600846406840F00200486000BF50
:100920000348406800F00C000828F9D10CBD000015
:100930000010024000200240042808D14FF0E021BE
:10094000096941F004014FF0E022116107E04FF026
:10095000E021096921F004014FF0E02211617047A4
:1009600010B500BFBF2080F31188BFF34F8FBFF3D6
:100970006F8F00BF01F018FC18B14FF08050044990
:10098000086000BF002080F3118800BF10BD000088
:1009900004ED00E010B51348006840F00100114973
:1009A000086008464068104908400E4948600846FB
:1009B00000680E4908400B4908600846006820F4AA
:1009C000802008600846406820F4FE0048604FF42C
:1009D0001F008860FFF73CFF4FF00060044908608B
:1009E00010BD0000001002400000FFF8FFFFF6FEFF
:1009F00008ED00E010B501210D4800F031F80128A4
:100A000014D10C480088401C0A4908800A48008814
:100A1000401C0949088008460088B0F5FA7F01DBD0
:100A2000002008800121024800F00BF810BD0000F2
:100A3000001000402200002024000020CA4302824F
:100A40007047CA430282704721B1028842F0010216
:100A5000028004E002884FF6FE731A40028070475D
:100A600030B50246002000230024158A05EA010360
:100A7000958905EA010413B10CB1012000E00020C2
:100A800030BD1AB183890B43838102E083898B4394
:100A90008381704701894FF6F872114001817047D8
:100AA000002202881D4B98420ED01D4B98420BD05D
:100AB000B0F1804F08D01B4B984205D01A4B98429A
:100AC00002D01A4B984204D14FF68F731A404B88CC
:100AD0001A43174B984207D0164B984204D04FF652
:100AE000FF431A40CB881A4302808B8883850B888A
:100AF00003850A4B98420BD0094B984208D00E4B05
:100B0000984205D00D4B984202D00D4B984201D12E
:100B10000B7A03860123838270470000002C01407A
:100B2000003401400004004000080040000C004078
:100B3000001000400014004000400140004401400B
:100B40000048014010B540F22551264800F07AF8DF
:100B5000012846D1234800F013F92349087023489F
:100B6000007838B9084600782C2803D101201F49A5
:100B7000087031E01D480078012807D11A48007834
:100B8000122803D102201949087025E0174800787F
:100B9000022811D114480178154802780078401CC9
:100BA000134B18701348815418460078022813DB41
:100BB00003200E4908700FE00C48007803280BD181
:100BC000094800785B2807D10020094908700749C7
:100BD000087001200849087040F22551014800F0D2
:100BE00016F810BD00380140040000200A00002063
:100BF0000B000020080000200500002001F4007216
:100C0000B2F5007F00D100BFCA430280704710B523
:100C10000022002340F66A14A14200D100BF0A124C
:100C200001249440A3B2DC43048010BD21B1828929
:100C300042F40052828104E082894DF6FF731A402B
:100C40008281704702460020B1F5007F00D100BFCD
:100C500013880B400BB1012000E000207047F0B575
:100C60000346002400260025002040F66A17B942FA
:100C700000D100BF1846C1F3421401F01F0601273E
:100C800007FA06F5012C01D10C3004E0022C01D149
:100C9000103000E014301AB107682F43076002E0FB
:100CA0000768AF430760F0BD2DE9F04786B0054601
:100CB0000E460024A24600BFA1460027B08900B11D
:100CC00000BF2F462C8A4CF6FF700440F088044386
:100CD0002C82AC894EF6F3100440B0883189084369
:100CE000718908430443AC81AC8A4FF6FF4004404D
:100CF000B0890443AC8201A8FFF740FD1F4887423A
:100D000002D1DDF810A001E0DDF80CA0A88900F404
:100D1000004040B10AEBCA0000EB0A1031684900FC
:100D2000B0FBF1F807E00AEBCA0000EB0A103168EB
:100D30008900B0FBF1F86420B8FBF0F00401200951
:100D4000642101FB1089A88900F4004040B13220E1
:100D500000EBC900B0FBF1F000F00700044308E02D
:100D6000322000EB09106421B0FBF1F000F00F001D
:100D700004432C8106B0BDE8F08700000038014034
:100D800001468888C0F30800704700BFFEE730388E
:100D90000A2801D2012070470020704700BF704729
:100DA00010B50420FFF7C8FD0B4804684FF47A70B3
:100DB000B4FBF0F44FF0E0204461006940F0010022
:100DC0004FF0E0210861044800680449B0FBF1F0ED
:100DD0000349088010BD00003800002040420F0089
:100DE0000C00002010B5044603E04FF47A7000F0C8
:100DF00005F8201EA4F10104F7D110BD70B503461B
:100E000000224FF0E02675690D4E368803FB06F48C
:100E10004FF0E026B16910E04FF0E026B06988425B
:100E20000BD0884202D20E1A324402E02E1A0E442F
:100E300032440146A24200D300E0EDE700BF70BD9E
:100E40000C00002000BF054A128802F04002002A70
:100E5000F9D0C2B2014B1B1D1A8070470038014007
:100E600008B500BF01211020FFF778FC00BF00BFCC
:100E700001210420FFF772FC00BF00BF0121042004
:100E8000FFF76CFC00BF48208DF803002020ADF870
:100E9000000003208DF8020069460F48FFF765FB4C
:100EA00048208DF803004FF40040ADF80000032007
:100EB0008DF8020069460848FFF757FB28208DF897
:100EC00003000120ADF8000003208DF80200694600
:100ED0000248FFF74AFB08BD00100140000801402E
:100EE00070B50446002514B101202349087022483A
:100EF000007858B320212148FFF7C2FB58B14FF4C6
:100F000000411F48FFF7BCFB28B101211C48FFF737
:100F1000B7FB01281AD10A20FFF764FF0020164909
:100F2000087020211548FFF7ABFB00B901254FF4ED
:100F300000411348FFF7A4FB00B902250121104826
:100F4000FFF79EFB012815D1032513E020210B4854
:100F5000FFF796FB01280DD1C1030948FFF790FB6D
:100F6000012807D101210648FFF78AFB10B90120AB
:100F700001490870284670BD4C0000200010014057
:100F80000008014008B500BF01210420FFF7E6FB7F
:100F900000BF00BF01212020FFF7E0FB00BF1020B1
:100FA0008DF803000001ADF8000003208DF8020069
:100FB00069460C48FFF7D9FA0420ADF800006946ED
:100FC0000948FFF7D2FA00BF012211020548FFF7D6
:100FD00069FB00BF00BF012204210348FFF762FB49
:100FE00000BF08BD00080140001401404FF44070EC
:100FF000FFF79AFBFFF7D4FEFFF7C4FFFFF730FFC0
:1010000000F0F6F80AA20121084600F087F94FF433
:101010007A70FFF7E7FE00F00FF800F0DDFD00F05A
:1010200091FD00F0A7FD00F0ADF900BFFEE7000064
:101030004C4F41442E2E2E0070B500240EE00021AE
:10104000204600F020F9002504E0002000F08AF995
:10105000681CC5B2802DF8DB601CC4B2082CEEDB26
:1010600070BD000008B54FF47A70FFF7BBFE00BFFB
:1010700001211020FFF772FB00BF00BF01211020EB
:10108000FFF76CFB00BF14208DF8030003208DF8E0
:1010900002004FF48070ADF8000069460C48FFF77D
:1010A00064FA4FF40070ADF8000069460848FFF795
:1010B0005CFA00BF012211020548FFF7F3FA00BFF6
:1010C00000BF012251020248FFF7ECFA00BF08BD41
:1010D0000010014010B50220FFF790FE10BD000087
:1010E00070B50546002426E000BF8020204128403E
:1010F00028B1012251021948FFF7D4FA05E0002275
:101100004FF400711548FFF7CDFA00BFFFF7E2FF7B
:1011100000BF012211021148FFF7C4FA00BFFFF718
:10112000D9FF00BF00224FF480710C48FFF7BAFAD4
:1011300000BF601CC4B2082CD6DB00BF0122110224
:101140000648FFF7AFFA00BF00BF00224FF48071DE
:101150000248FFF7A7FA00BF70BD00000010014071
:1011600010B500BF012251021048FFF79BFA00BFE3
:1011700000BF012211020D48FFF794FA00BFFFF7EC
:10118000A9FF00BF00224FF400710848FFF78AFA58
:1011900000BFFFF79FFF00BF00224FF4807103489C
:1011A000FFF780FA00BFFFF795FF10BD0010014068
:1011B00010B500BF00224FF400710C48FFF772FA1F
:1011C00000BFFFF787FF00BF012211020748FFF7AA
:1011D00069FA00BFFFF77EFF00BF012251020348FA
:1011E000FFF760FA00BFFFF775FF10BD0010014068
:1011F00010B5FFF737FFAE2000F0A4F8D52000F0BF
:10120000A1F8802000F09EF8A82000F09BF83F2075
:1012100000F098F8D32000F095F8002000F092F844
:10122000402000F08FF8A12000F08CF8C82000F0DA
:1012300089F8DA2000F086F8122000F083F8812087
:1012400000F080F8CF2000F07DF8D92000F07AF887
:10125000F12000F077F8DB2000F074F8302000F087
:1012600071F8A42000F06EF8A62000F06BF88D2035
:1012700000F068F8142000F065F8AF2000F062F884
:10128000FFF7DAFE10BD70B505460C4645F0B0001C
:1012900000F058F8102141EA141000F053F804F05F
:1012A0000F0000F04FF870BD2DE9F04105460E46E5
:1012B0001746721ED206110E6A1E5206100EFFF756
:1012C000E2FF002409E0A7F12001134A02EB01111B
:1012D000085D00F047F8601CC4B2082CF3DB721EF6
:1012E000D206110E6A1E012303EB4202D0B2FFF7B1
:1012F000CAFF00240BE0A7F12001074A02EB01120C
:1013000004F10801505C00F02DF8601CC4B2082CF8
:10131000F1DBBDE8F0810000942400082DE9F041E4
:1013200007460E461546002407E02A5D3019C1B273
:101330003846FFF7B9FF601CC4B2285D0028F4D11D
:10134000BDE8F08110B50446FFF70AFF7820FFF7EB
:10135000C7FE0020FFF7C4FE2046FFF7C1FEFFF7DF
:1013600027FF10BD10B50446FFF7FAFE7820FFF7FF
:10137000B7FE4020FFF7B4FE2046FFF7B1FEFFF7AF
:1013800017FF10BD1CB50648012100238022CDE9BE
:10139000001004A1064800F0D3FE00F0DDFD1CBDE6
:1013A0002800002073746172745F7461736B0000B5
:1013B000291900082DE9F04105460E462648076820
:1013C00026480068001D00F047FC50B9234800681B
:1013D00090F82C1001208840214909688143204859
:1013E0000160681CD8B9D6B11E4948681B49096814
:1013F00088601A4982680968CA6018490968091D25
:101400008268516015490968091D8160154A1349B0
:1014100009684A6111460968491C11601AE07C1983
:101420000E4800684460BC4207D20C480168091DA0
:101430000D48006800F034FC0CE008480168091D04
:101440000A48006800F02CFC09480068844201D278
:1014500007480460BDE8F0816400002050000020CF
:101460006800002080030020580000205400002065
:101470008000002010B5044600F038FC2F480068BA
:10148000401C2E4908602E48006840B92C48046072
:101490000846006801280DD100F016F90AE0294835
:1014A000006838B926480068C06AE16A884201D8F5
:1014B0002348046024480068401C2349086094F8CD
:1014C0002C10012088402149096808431F49086001
:1014D000E16A01EB81011E4A02EB81014868A060CC
:1014E0008268E260211D826851608160E16A01EBDF
:1014F0008101174A02EB81026261E16A01EB81011D
:10150000134A52F82110491CE26A02EB8202104B86
:1015100043F8221000F0FCFB0A48006868B1084854
:101520000068C06AE16A884207D24FF080500949DA
:101530000860BFF34F8FBFF36F8F10BD60000020B6
:10154000500000206C0000207C000020680000207B
:10155000B000002004ED00E010B516E000F0C6FB7E
:101560000C48C068C468201D00F076FB0A4800687B
:10157000401E0949086009480068401E0749086084
:1015800000F0C6FB204600F00BF804480068002875
:10159000E4D110BD6C030020600000205C0000203E
:1015A00010B50446206B00F0C3FB204600F0C0FBE2
:1015B00010BD000030B54FF42053154800F007046B
:1015C0002CB1C01D20F00700114C041B1B1B024650
:1015D000104C226000240F4D6C60D018083820F0A9
:1015E00007000D4C206000240B4D2D686C600A4DE7
:1015F0002D682C601146441A4C60074C24680C601E
:10160000064D4C682C60064D4C682C6030BD0000C7
:10161000940300209000002098000020A0000020EB
:101620009C00002000BFFFF797FF064800680128D4
:10163000F9D94FF0805004490860BFF34F8FBFF3D2
:101640006F8FF0E7B000002004ED00E02DE9FF5FB0
:1016500080460E469146DDE90E7A109CA9F1010004
:10166000216B01EB800B2BF0070B7EB1002507E00F
:10167000715D04F134004155705D00B902E06D1CEC
:10168000102DF5D300BF002143200155202F00D39A
:101690001F27E762201D00F000FB04F1180000F096
:1016A000FCFA2461C7F12000A061646241465846FB
:1016B000039A00F027F92060BAF1000F01D0CAF8B0
:1016C0000040BDE8FF9F000010B5002407E004EBD8
:1016D00084010F4A02EB810000F0D2FA641C202C36
:1016E000F5D30C4800F0CCFA0B4800F0C9FA0B48CF
:1016F00000F0C6FA0A4800F0C3FA0A4800F0C0FA3F
:1017000004480949086004480849086010BD000001
:10171000B0000020300300204403002058030020C4
:101720006C0300208003002054000020580000209B
:1017300010B50146164800E0006803688B42FBD3F1
:101740000246436813448B4204D143684C682344E7
:10175000436001460A464B6813440468A34211D112
:101760000C4C03682468A34208D04B680468646882
:1017700023444B6003681B680B6005E0054B1B6846
:101780000B6001E003680B60884200D0016010BD6F
:10179000900000209800002009480068006808B9FF
:1017A000012000E0002020B14FF0FF300549086023
:1017B00005E003480068C068006802490860704797
:1017C000540000208000002000BFBF2080F311885B
:1017D000BFF34F8FBFF36F8F00BF00BFFEE7000066
:1017E00010B5014600200A460B4C5369A34201D1B3
:1017F000012300E0002373B1084C936AA34201D196
:10180000012300E0002333B9936A0BB9012300E000
:10181000002303B1012010BD8003002058030020E5
:101820002DE9F04705464FF0000900F037FC30483D
:10183000006808B9FFF7BEFE75B105F00700C0F1FA
:101840001008C8F1FF30A84201D2012000E00020BA
:1018500008B9454400E00025012000EBE5700028B0
:1018600041D0002D3FD02348006885423BD8224E0E
:101870003046046801E0264624686068A84202D227
:1018800020680028F7D11A48006884422BD03068BD
:1018900000F10809206830606068401B102807D9F3
:1018A00067196068401B786065603846FFF740FF45
:1018B000104960680968081A0E49086008460068FF
:1018C0000E490968884203D20A4800680B4908603B
:1018D000606840F0004060600020206008480068B8
:1018E000401C0749086000F027FD4846BDE8F08726
:1018F000980000209C00002090000020A000002004
:10190000A4000020001F4FF080730360001F21F02F
:1019100001030360001F034B03601438026020388A
:1019200070470000C91700081CB5044600F0DEF936
:101930001248022100238022CDE9001010A1124894
:1019400000F0FEFB1148022100238022CDE90010A7
:101950000FA1114800F0F4FB10480321002380225E
:10196000CDE900100EA1104800F0EAFB0F48006816
:1019700000F032FA00F0CCF91CBD00002C00002071
:101980007461736B31000000B11900083000002051
:101990007461736B320000000D1A000834000020DF
:1019A0007461736B33000000651A00082800002082
:1019B0001EE04FF4FA7000F0F5F900F097F90DA071
:1019C000FEF774FC00BF4FF480710F48FEF761FE14
:1019D00030B100224FF480710B48FEF763FE04E043
:1019E000012211020848FEF75DFE00BF00F090F9E9
:1019F000DFE7000072756E6E696E672D2D7461737E
:101A00006B310D0A00000000000801401CE04FF49B
:101A1000FA7000F0C7F900F069F90CA0FEF746FC77
:101A200000BF04210E48FEF734FE28B10022042135
:101A30000B48FEF737FE04E0012204210848FEF7B8
:101A400031FE00BF00F064F9E1E7000072756E6ED0
:101A5000696E672D2D7461736B320D0A00000000F2
:101A600000140140002421E000F040F90020FFF7BD
:101A700037FA0446012C02D0022C10D107E00CA04A
:101A8000FEF714FC0F48006800F09CFA08E00EA076
:101A9000FEF70CFC0B48006800F008FA00E000BFFD
:101AA00000BF00F035F90A2000F07CF9DCE7000007
:101AB00053757370656E642D2D7461736B310D0AEF
:101AC000000000002C000020526573756D652D2DFF
:101AD0007461736B310D0A002DE9FF4707460C4610
:101AE00015461E46DDE90D9ADDF830803846FEF7D2
:101AF000D1FF0020ADF80A00ADF80600ADF80840AF
:101B0000ADF804508DF80C0001A93846FEF7C8FF67
:101B1000AEB101213846FEF791FF01221146384649
:101B2000FEF7AFFF8DF8008001208DF803008DF8DF
:101B300001908DF802A06846FEF7BEFD00BFBDE82B
:101B4000FF8700000EB500BF01211020FEF7F6FD53
:101B500000BF0020052136220123CDE9002102909B
:101B6000472240F2E7310248FFF7B6FF0EBD000002
:101B70000010004010B501210148FEF765FF10BDBF
:101B80000010004008B500BF01210420FEF7E6FD6B
:101B900000BF00BF01210420FEF7E0FD00BF1820B8
:101BA0008DF803004FF40070ADF8000003208DF8AD
:101BB000020069460748FEF7D8FC48208DF803006C
:101BC0004FF48060ADF8000069460248FEF7CDFC96
:101BD00008BD00000008014000B585B0FFF7D2FF46
:101BE00000BF01218803FEF7B9FD00BF4FF4E130CB
:101BF00001900020ADF810000C20ADF80E00002080
:101C0000ADF80C00ADF80A00ADF8080001A91148C4
:101C1000FFF74AF8012240F225510E48FFF71FF85E
:101C200025208DF8000001208DF8030005208DF897
:101C3000010000208DF802006846FEF73DFD0121FD
:101C40000448FEF7F3FF40210248FEF7D7FF05B036
:101C500000BD00000038014001460A69D1E90130A9
:101C60009860D1E9010358605068884201D18868C2
:101C70005060002008611068401E106010687047B6
:101C800000F1080141604FF0FF31816000F108016F
:101C9000C16001610021016070470021016170474E
:101CA00010B502460B685C1C0CB9106907E002F124
:101CB000080000E04068446824689C42FAD94468FF
:101CC0004C604C68A160886041600A611468641CC3
:101CD000146010BD42684A6093688B6093685960D5
:101CE0009160086103685B1C0360704700BFBF2000
:101CF00080F31188BFF34F8FBFF36F8F00BF03488E
:101D00000068401C0149086070470000AC000020DA
:101D100006480068401E054908600846006820B96A
:101D2000002080F3118800BF00BF7047AC00002086
:101D300070B506463546E6B1083D2C466068C00FD2
:101D4000B8B12068A8B9606820F00040606000F079
:101D5000A5F90849606809680844064908602046F2
:101D6000FFF7E6FC04480068401C0349086000F0E7
:101D7000E3FA70BD9C000020A800002000204FF076
:101D8000E02108618861064800684FF47A71B0FB71
:101D9000F1F0401E4FF0E0214861072008617047D4
:101DA0003800002070B50446002544B100F076F9F3
:101DB00000212046FFF7FEFA00F0BEFA05463DB9C5
:101DC0004FF0805003490860BFF34F8FBFF36F8F10
:101DD00070BD000004ED00E070B50546FFF786FF1A
:101DE00015B92948006800E028460446201DFFF781
:101DF00033FF78B9E06A00EB8000244951F82000F5
:101E000040B994F82C100120884021490968814389
:101E10001F480160A06A18B104F11800FFF71CFF09
:101E20001C480068401C1B49086017480068844231
:101E300009D1211D1848FFF74DFF18480068401CC4
:101E40001649086006E016480068401E14490860FC
:101E5000FFF7A2FCFFF75CFF0B480068844202D04A
:101E60002046FFF79DFB0F48006858B10648006800
:101E7000844207D14FF080500B490860BFF34F8F69
:101E8000BFF36F8F70BD000050000020B000002035
:101E9000680000207C0000206C0300205C00002013
:101EA000600000206C00002004ED00E070B50546E5
:101EB0002C4625480068844245D0002C43D0FFF7CB
:101EC00015FF2046FFF78CFCD8B3201DFFF7C4FE9A
:101ED00094F82C10012088401C49096808431B49CC
:101EE0000860E16A01EB8101194A02EB810148684F
:101EF000A0608268E260211D826851608160E16AB1
:101F000001EB8101124A02EB81026261E16A01EB9D
:101F100081010F4A52F82110491CE26A02EB820249
:101F20000B4B43F822100849E06A0968C96A8842E5
:101F300007D34FF0805007490860BFF34F8FBFF3BE
:101F40006F8FFFF7E5FE70BD500000206800002095
:101F5000B000002004ED00E01CB5124800210B4643
:101F60008022CDE9001010A1114800F0E9F80446E4
:101F7000012C14D100BFBF2080F31188BFF34F8F15
:101F8000BFF36F8F00BF4FF0FF300A490860012098
:101F90000949086000200949086000F0B7F80848BE
:101FA00000681CBD8400002049444C45000000002E
:101FB00025160008800000206C000020640000202E
:101FC0008800002070B50546FFF790FE15B92C4833
:101FD000006800E028460446201DFFF73DFE78B962
:101FE000E06A00EB8000274951F8200040B994F8DE
:101FF0002C1001208840244909688143224801604F
:10200000A06A18B104F11800FFF726FE211D1F4831
:10201000FFF760FE002009E004F14801095C012996
:1020200003D1002204F148010A54401C0128F3DBCB
:10203000FFF76EFE1648006828B1FFF757FEFFF75E
:10204000ABFBFFF765FE0E480068844217D11048CD
:10205000006840B14FF080500E490860BFF34F8FC9
:10206000BFF36F8F0BE0094800680B49096888428D
:1020700003D100200249086001E000F017F870BDAC
:1020800050000020B00000206800002080030020E5
:102090006C00002004ED00E06000002002480068B1
:1020A000401C0149086070478C00002012480068FD
:1020B00018B10120114908601DE000200F49086097
:1020C0000F480068B0FA80F0C0F11F0101EB8102F7
:1020D0000C4B03EB820042685268426000F1080238
:1020E0004368934202D14268526842604268D268B3
:1020F000054B1A6000BF70478C0000207400002060
:1021000068000020B00000205000002010B50A48F0
:10211000006840F47F00084908600846006840F005
:102120007F400860FFF72AFE002004490860FEF7A0
:1021300061F8002010BD000020ED00E0AC000020A0
:102140002DE9FF4F85B0804689461746DDE912AB81
:10215000B800FFF765FB064676B14C20FFF760FB41
:1021600004462CB14C212046FEF7ACF8266304E06F
:102170003046FFF7DDFD00E000247CB10020CDE912
:1021800000ABCDE902403A4649464046089BFFF77E
:102190005DFA2046FFF76EF9012501E04FF0FF35AB
:1021A000284609B0BDE8F08F2DE9F04100275748D7
:1021B000006800287ED156480068451C54480560D8
:1021C0008DB95448D0F800805348006851490860E0
:1021D0005148C0F8008051480068401C4F490860D1
:1021E000FFF7DAFA00BF4E480068854276D300BF99
:1021F00048480068006808B9012000E0002020B1CC
:102200004FF0FF304649086067E042480068C06808
:10221000C4686668B54202D2414806605DE0606904
:10222000D4E902128A60D4E902214A60211D426881
:102230008A4201D1E1684160002262610168491E61
:102240000160A06A98B1A06AD4E907128A60D4E953
:1022500007214A6004F1180142688A4201D1216ACB
:1022600041600022A2620168491E016000BF94F82B
:102270002C10012088402B4909680843294908602F
:10228000E16A01EB8101284A02EB81014868A06004
:102290008268E260211D826851608160E16A01EB21
:1022A0008101214A02EB81026261E16A01EB810155
:1022B0001D4A00E022E052F82110491CE26A02EBBC
:1022C0008202194B43F822101849E06A0968C96A6A
:1022D00088428DD901278BE700E000BF13480068D2
:1022E000C06A00EB8000104951F82000012800D995
:1022F00001270F48006800B1012704E00D4800687D
:10230000401C0C4908603846BDE8F0818C00002074
:1023100064000020540000205800002078000020B5
:102320008000002068000020B00000205000002045
:10233000740000207000002070B500240026FFF714
:10234000D5FC4B480068401E4949086008460068B3
:1023500000287DD147480068002879D05BE04648D6
:10236000C068C468A06AD4E907128A60D4E907216A
:102370004A6004F1180142688A4201D1216A416031
:102380000022A2620168491E01606069D4E902125C
:102390008A60D4E902214A60211D42688A4201D143
:1023A000E1684160002262610168491E016094F8A1
:1023B0002C10012088403149096808432F490860E2
:1023C000E16A01EB81012E4A02EB81014868A060BD
:1023D0008268E260211D826851608160E16A01EBE0
:1023E0008101274A02EB81026261E16A01EB81010E
:1023F000234A52F82110491CE26A02EB8202204B68
:1024000043F822101F49E06A0968C96A884202D36A
:1024100001201D4908601848006808B9012000E043
:10242000002000289BD00CB1FFF7B6F917480568CB
:1024300065B100BFFFF7B8FE10B101201249086076
:102440006D1E002DF6D10020104908600E4800E0F6
:1024500009E0006838B1012630070D490860BFF374
:102460004F8FBFF36F8FFFF753FC304670BD0000F6
:102470008C0000206000002058030020680000202D
:10248000B0000020500000207400002070000020E8
:1024900004ED00E00000000000000000000000006B
:1024A00000000000000000F8000000000000003301
:1024B0003000000000100C06100C060000000000A8
:1024C0000000000040C07840C0784000043F040491
:1024D0003F040400007088FC08300000001820FF52
:1024E000211E0000F008F000E018000000211C038D
:1024F0001E211E0000F00888700000001E21232409
:102500001927211010160E00000000000000000026
:1025100000000000000000E01804020000000007B6
:102520001820400000020418E000000000402018BD
:1025300007000000404080F0804040000202010F90
:1025400001020200000000F0000000000101011F74
:1025500001010100000000000000000080B07000D8
:102560000000000000000000000000000001010168
:1025700001010101000000000000000000303000F7
:1025800000000000000000008060180400601806D1
:102590000100000000E010080810E000000F10200B
:1025A00020100F00001010F8000000000020203F55
:1025B00020200000007008080888700000302824DF
:1025C0002221300000300888884830000018202080
:1025D00020110E000000C02010F8000000070424A5
:1025E000243F240000F808888808080000192120EA
:1025F00020110E0000E0108888180000000F112044
:1026000020110E0000380808C83808000000003FFC
:10261000000000000070880808887000001C22215B
:1026200021221C0000E010080810E0000000312208
:1026300022110F00000000C0C000000000000030A8
:1026400030000000000000800000000000008060FA
:10265000000000000000804020100800000102047B
:102660000810200040404040404040000404040462
:10267000040404000008102040800000002010081E
:1026800004020100007048080808F0000000003053
:1026900036010000C030C828E810E00007182724E1
:1026A00023140B000000C038E0000000203C23028F
:1026B0000227382008F8888888700000203F2020F2
:1026C00020110E00C0300808080838000718202024
:1026D0002010080008F808080810E000203F20201B
:1026E00020100F0008F88888E8081000203F2020FC
:1026F0002320180008F88888E8081000203F2000F0
:1027000003000000C0300808083800000718202027
:10271000221E020008F808000008F808203F2101E6
:1027200001213F20000808F8080800000020203F91
:102730002020000000000808F8080800C080808001
:102740007F00000008F888C028180800203F2001FA
:102750002638200008F8080000000000203F202054
:102760002020300008F8F800F8F80800203F003F6B
:10277000003F200008F830C00008F808203F200083
:1027800007183F00E01008080810E0000F10202094
:1027900020100F0008F808080808F000203F210169
:1027A00001010000E01008080810E0000F182424C0
:1027B00038504F0008F8888888887000203F200033
:1027C000030C3020007088080808380000382021E9
:1027D00021221C00180808F8080818000000203FF3
:1027E0002000000008F808000008F808001F20205A
:1027F00020201F000878880000C83808000007382B
:102800000E010000F80800F80008F800033C07007B
:10281000073C0300081868808068180820302C03E3
:10282000032C30200838C800C83808000000203FBA
:102830002000000010080808C838080020382621A9
:1028400020201800000000FE020202000000007FAD
:1028500040404000000C30C00000000000000001BB
:102860000638C00000020202FE00000000404040A6
:102870007F000000000004020202040000000000CB
:102880000000000000000000000000008080808048
:102890008080808000020204000000000000000030
:1028A00000000000000080808080000000192422C9
:1028B00022223F2008F8008080000000003F112005
:1028C00020110E000000008080800000000E11200A
:1028D00020201100000000808088F800000E1120E8
:1028E00020103F200000808080800000001F2222F6
:1028F00022221300008080F0888888180020203F62
:10290000202000000000808080808000006B949474
:102910009493600008F8008080800000203F210030
:1029200000203F2000809898000000000020203FF9
:1029300020200000000000809898000000C08080E7
:10294000807F000008F8000080808000203F240283
:102950002D302000000808F8000000000020203F73
:10296000202000008080808080808000203F200028
:102970003F20003F8080008080800000203F2100B9
:1029800000203F200000808080800000001F202069
:1029900020201F00808000808000000080FFA12098
:1029A00020110E000000008080808000000E1120A9
:1029B00020A0FF80808080008080800020203F2138
:1029C00020000100000080808080800000332424EB
:1029D00024241900008080E0808000000000001F97
:1029E000202000008080000000808000001F202048
:1029F00020103F20808080000080808000010E3009
:102A00000806010080800080008080800F300C0369
:102A10000C300F0000808000808080000020312E6C
:102A20000E312000808080000080808080818E7048
:102A30001806010000808080808080000021302CFA
:102A40002221300000000000807C02020000000013
:102A5000003F404000000000FF00000000000000B8
:102A6000FF0000000002027C800000000040403FA8
:102A70000000000000060101020204040000000042
:102A80000000000004000008000000000000000238
:102A90000001000010000000B82A0008000000201B
:102AA000B00000006C010008682B0008B000002096
:102AB000483100008801000800000000000000000C
:102AC00000000000000000000000010203040102F9
:102AD00003040607080902040608000000000000BD
:102AE00000000000000000000000000000000000E6
:102AF00000A24A04000000000000000001020304DC
:102B000006070809010000000000000000000000A6
:102B100000000000000000000000000000000000B5
:102B200000000000000000000000000000000000A5
:102B30000000000000000000000000000000000095
:102B40001F00000000000000000000000000000066
:102B50000000000000000000000000000000000075
:082B600000000000AAAAAAAAC5
:0400000508000131BD
:00000001FF
