:020000040800F2
:10000000A0060020CD010008BD030008B5030008CC
:10001000B90300087D020008B70A000800000000CC
:100020000000000000000000000000005D05000866
:100030008102000800000000450400087106000865
:10004000E7010008E7010008E7010008E7010008F0
:10005000E7010008E7010008E7010008E7010008E0
:10006000E7010008E7010008E7010008E7010008D0
:10007000E7010008E7010008E7010008E7010008C0
:10008000E7010008E7010008E7010008E7010008B0
:10009000E7010008E7010008E7010008E7010008A0
:1000A000E7010008E7010008E7010008E701000890
:1000B000E7010008E7010008E7010008E701000880
:1000C000E7010008E7010008E7010008E701000870
:1000D000E7010008E701000871080008E7010008CF
:1000E000E7010008E7010008E7010008E701000850
:1000F000E7010008E7010008E7010008E701000840
:10010000E7010008E7010008E7010008E70100082F
:10011000E7010008E7010008D5060008E70100082C
:10012000E7010008E7010008E7010008E70100080F
:1001300000F002F800F03AF80AA090E8000C8244BF
:100140008344AAF10107DA4501D100F02FF8AFF29C
:10015000090EBAE80F0013F0010F18BFFB1A43F0A5
:10016000010318474816000068160000103A24BF23
:1001700078C878C1FAD8520724BF30C830C144BF0C
:1001800004680C607047000000230024002500264E
:10019000103A28BF78C1FBD8520728BF30C148BFEA
:1001A0000B6070471FB51FBD10B510BD00F033F8D0
:1001B0001146FFF7F7FF00F05DFD00F051F803B4C2
:1001C000FFF7F2FF03BC00F078FC0000094880470D
:1001D00009480047FEE7FEE7FEE7FEE7FEE7FEE729
:1001E000FEE7FEE7FEE7FEE704480549054A064B41
:1001F000704700007506000831010008A0000020CB
:10020000A0060020A0020020A00200207047704736
:10021000704770477047754600F02CF8AE460500F1
:100220006946534620F00700854618B020B5FFF711
:10023000DBFFBDE820404FF000064FF000074FF015
:1002400000084FF0000B21F00701AC46ACE8C009F4
:10025000ACE8C009ACE8C009ACE8C0098D467047FD
:1002600010B50446AFF300802046BDE81040FFF70C
:10027000A6BF0000004870473C00002000BFFEE71A
:1002800070472DE9F041024600250026002000239A
:100290000024002791F803C00CF00F0591F803C06B
:1002A0000CF0100CBCF1000F03D091F802C04CEA26
:1002B000050591F800C0BCF1000F31D01468002092
:1002C0002BE04FF0010C0CFA00F3B1F800C00CEA7F
:1002D00003069E4220D183004FF00F0C0CFA03F767
:1002E000BC4305FA03FC4CEA040491F803C0BCF1DA
:1002F000280F06D14FF0010C0CFA00FCC2F814C014
:100300000AE091F803C0BCF1480F05D14FF0010C91
:100310000CFA00FCC2F810C0401C0828D1D31460AD
:10032000B1F800C0BCF1FF0F34DD546800202EE0AE
:1003300000F1080C4FF0010808FA0CF3B1F800C006
:100340000CEA03069E4221D183004FF00F0C0CFAF9
:1003500003F7BC4305FA03FC4CEA040491F803C01C
:10036000BCF1280F05D100F1080C08FA0CF8C2F80E
:10037000148091F803C0BCF1480F07D100F1080CBC
:100380004FF0010808FA0CF8C2F81080401C082849
:10039000CED35460BDE8F08102460020D3680B4004
:1003A0000BB1012000E0002070470AB1016100E0BC
:1003B0004161704700BFFEE700BFFEE770470000E5
:1003C00070B5002100230F22C47804B3154C2468B3
:1003D00004F4E064C4F5E064210AC1F10403CA40F6
:1003E000447804FA03F184781440214309010E4C47
:1003F0000678A155047804F01F050124AC40057867
:100400006D11AD0005F1E025C5F8004109E0047863
:1004100004F01F050124AC40044D0678761145F820
:10042000264070BD0CED00E000E400E080E100E05B
:1004300002490143024A1160704700000000FA05BA
:100440000CED00E07047000029B1064AD269024372
:10045000044BDA6104E0034AD2698243014BDA615A
:10046000704700000010024029B1064A9269024319
:10047000044B9A6104E0034A92698243014B9A61FA
:10048000704700000010024030B500210022002417
:1004900000232D4D6D6805F00C0121B1042905D014
:1004A000082923D105E0294D056022E0274D05608C
:1004B0001FE0254D6D6805F47012234D6D6805F43D
:1004C0008034022505EB92421CB9214D554305604D
:1004D0000BE01D4D6D6805F400351DB11C4D5543F5
:1004E000056002E0194D5543056002E0174D0560B7
:1004F00000BF00BF144D6D6805F0F0010909154DEE
:100500006B5C0568DD4045600F4D6D6805F4E0618A
:10051000090A104D6B5C4568DD4085600A4D6D68C9
:1005200005F46051C90A0B4D6B5C4568DD40C56040
:10053000054D6D6805F44041890B074D6B5CC5683E
:10054000B5FBF3F5056130BD0010024000127A00E2
:1005500000093D000E0000201E000020704710B56D
:1005600000F002F810BD00000CB5002001900090D2
:100570003348006840F480303149086000BF30489B
:10058000006800F4003000900198401C0190009831
:1005900018B90198B0F5A06FF1D12948006800F4AE
:1005A000003010B10120009001E000200090009880
:1005B000012843D12348006840F010002149086019
:1005C0000846006820F0030008600846006840F014
:1005D000020008601A4840681949486008464068A7
:1005E00048600846406840F48060486008464068BB
:1005F00020F47C1048600846406840F4E8104860E9
:100600000846006840F08070086000BF0C48006831
:1006100000F000700028F9D00948406820F003007D
:10062000074948600846406840F00200486000BF43
:100630000348406800F00C000828F9D10CBD000008
:100640000010024000200240042808D14FF0E021B1
:10065000096941F004014FF0E022116107E04FF019
:10066000E021096921F004014FF0E0221161704797
:100670007047000010B51348006840F001001149B0
:10068000086008464068104908400E49486008461E
:1006900000680E4908400B4908600846006820F4CD
:1006A000802008600846406820F4FE0048604FF44F
:1006B0001F008860FFF753FF4FF000600449086097
:1006C00010BD0000001002400000FFF8FFFFF6FE22
:1006D00008ED00E010B501211E4800F057F8012890
:1006E00036D11D480088401C1B4908801B480088E3
:1006F000401C1A49088018480088B0F57A7F07DB4B
:1007000017480078401C16490870002012490880DC
:1007100012480088B0F5FA7F16DB00BF4FF48071F5
:100720001048FFF739FE30B100224FF480710D48B8
:10073000FFF73BFE04E0012211020A48FFF735FEF5
:1007400000BF0020054908800121024800F00FF891
:1007500010BD0000001000402400002026000020F2
:100760002200002000080140CA4302827047CA43A9
:100770000282704721B1028842F00102028004E047
:1007800002884FF6FE731A400280704730B5024669
:10079000002000230024158A05EA0103958905EA53
:1007A000010413B10CB1012000E0002030BD1AB1EA
:1007B00083890B43838102E083898B438381704764
:1007C00001894FF6F87211400181704700220288BA
:1007D0001D4B98420ED01D4B98420BD0B0F1804F6C
:1007E00008D01B4B984205D01A4B984202D01A4BA6
:1007F000984204D14FF68F731A404B881A43174B17
:10080000984207D0164B984204D04FF6FF431A4047
:10081000CB881A4302808B8883850B8803850A4B1B
:1008200098420BD0094B984208D00E4B984205D005
:100830000D4B984202D00D4B984201D10B7A0386A2
:100840000123838270470000002C014000340140E6
:100850000004004000080040000C00400010004070
:1008600000140040004001400044014000480140A5
:1008700010B540F22551264800F07AF8012846D1FB
:10088000234800F013F9234908702348007838B949
:10089000084600782C2803D101201F49087031E058
:1008A0001D480078012807D11A480078122803D182
:1008B00002201949087025E017480078022811D154
:1008C00014480178154802780078401C134B1870C2
:1008D0001348815418460078022813DB03200E4980
:1008E00008700FE00C48007803280BD10948007805
:1008F0005B2807D1002009490870074908700120CA
:100900000849087040F22551014800F016F810BD62
:1009100000440040040000200A0000200B000020DA
:10092000080000200500002001F40072B2F5007FED
:1009300000D100BFCA430280704710B500220023D7
:1009400040F66A14A14200D100BF0A12012494406B
:10095000A3B2DC43048010BD21B1828942F400526D
:10096000828104E082894DF6FF731A4082817047CC
:1009700002460020B1F5007F00D100BF13880B4074
:100980000BB1012000E000207047F0B503460024C1
:1009900000260025002040F66A17B94200D100BFAA
:1009A0001846C1F3421401F01F06012707FA06F5A5
:1009B000012C01D10C3004E0022C01D1103000E0F8
:1009C00014301AB107682F43076002E00768AF438D
:1009D0000760F0BD2DE9F04786B005460E460024BD
:1009E000A24600BFA1460027B08900B100BF2F4634
:1009F0002C8A4CF6FF700440F08804432C82AC89AA
:100A00004EF6F3100440B0883189084371890843D9
:100A10000443AC81AC8A4FF6FF400440B0890443E4
:100A2000AC8201A8FFF730FD1F48874202D1DDF8F4
:100A300010A001E0DDF80CA0A88900F4004040B14E
:100A40000AEBCA0000EB0A1031684900B0FBF1F86C
:100A500007E00AEBCA0000EB0A1031688900B0FB1E
:100A6000F1F86420B8FBF0F004012009642101FBD7
:100A70001089A88900F4004040B1322000EBC90081
:100A8000B0FBF1F000F00700044308E0322000EB77
:100A900009106421B0FBF1F000F00F0004432C8139
:100AA00006B0BDE8F08700000038014001468888A4
:100AB000C0F30800704700BFFEE700BF70470000AA
:100AC00010B500F01DF800F0A1F800F05FF800F09C
:100AD00033FB00F0B9F900F0E7FA00F0FDFA06A2E6
:100AE0000121084600F072FA4FF47A7000F01CF809
:100AF00000F0CEF810BD00004C6F61642E2E2E0069
:100B000010B56FF00400FFF79FFD0448006804492A
:100B1000B0FBF1F00349088010BD00002800002060
:100B200000127A000C00002010B5044603E04FF4D8
:100B30007A7000F005F8201EA4F10104F7D110BD71
:100B40000146114A12884A434FF0E0235A610022BD
:100B50009A611A46126942F001021A6100BF4FF011
:100B6000E022106900F001021AB100F48032002A7C
:100B7000F5D04FF0E022126922F001024FF0E0239D
:100B80001A6100229A6170470C00002008B500BF6E
:100B900001211020FFF768FC00BF00BF01210420E5
:100BA000FFF762FC00BF00BF01210420FFF75CFCDF
:100BB00000BF48208DF803002020ADF8000003207E
:100BC0008DF8020069460F48FFF75BFB48208DF85F
:100BD00003004FF40040ADF8000003208DF8020040
:100BE00069460848FFF74DFB28208DF803000120D7
:100BF000ADF8000003208DF8020069460248FFF7B7
:100C000040FB08BD001001400008014008B500BFCE
:100C100001210420FFF728FC00BF00BF0121202094
:100C2000FFF722FC00BF10208DF803000001ADF893
:100C3000000003208DF8020069460C48FFF721FBF5
:100C40000420ADF8000069460948FFF71AFB00BF11
:100C5000012211020548FFF7A8FB00BF00BF0122D7
:100C600004210348FFF7A1FB00BF08BD00080140B5
:100C700000140140FFF724FF06E001230348027837
:100C80001021184600F080F9F7E70000220000204C
:100C900070B500240EE00021204600F02AF900255E
:100CA00004E0002000F0B6F9681CC5B2802DF8DB26
:100CB000601CC4B2082CEEDB70BD000008B54FF418
:100CC0007A70FFF731FF00BF01211020FFF7CCFB46
:100CD00000BF00BF01211020FFF7C6FB00BF14209A
:100CE0008DF8030003208DF802004FF48070ADF8FA
:100CF000000069460C48FFF7C4FA4FF40070ADF8E5
:100D0000000069460848FFF7BCFA00BF0122110243
:100D10000548FFF74AFB00BF00BF0122510202480D
:100D2000FFF743FB00BF08BD0010014010B50220D3
:100D3000FFF706FF10BD000070B50546002426E051
:100D400000BF80202041284028B1012251021948CB
:100D5000FFF72BFB05E000224FF400711548FFF769
:100D600024FB00BFFFF7E2FF00BF01221102114880
:100D7000FFF71BFB00BFFFF7D9FF00BF00224FF4B6
:100D800080710C48FFF711FB00BF601CC4B2082C37
:100D9000D6DB00BF012211020648FFF706FB00BFA9
:100DA00000BF00224FF480710248FFF7FEFA00BF37
:100DB00070BD00000010014010B500BF01225102BB
:100DC0001048FFF7F2FA00BF00BF012211020D48E0
:100DD000FFF7EBFA00BFFFF7A9FF00BF00224FF4B7
:100DE00000710848FFF7E1FA00BFFFF79FFF00BF5F
:100DF00000224FF480710348FFF7D7FA00BFFFF7D6
:100E000095FF10BD0010014010B500BF00224FF447
:100E100000710C48FFF7C9FA00BFFFF787FF00BF5A
:100E2000012211020748FFF7C0FA00BFFFF77EFF5B
:100E300000BF012251020348FFF7B7FA00BFFFF7D6
:100E400075FF10BD0010014010B5FFF737FFAE2051
:100E500000F0D0F8D52000F0CDF8802000F0CAF8DE
:100E6000A82000F0C7F83F2000F0C4F8D32000F01D
:100E7000C1F8002000F0BEF8402000F0BBF8A1202F
:100E800000F0B8F8C82000F0B5F8DA2000F0B2F8A9
:100E9000122000F0AFF8812000F0ACF8CF2000F075
:100EA000A9F8D92000F0A6F8F12000F0A3F8DB2083
:100EB00000F0A0F8302000F09DF8A42000F09AF88F
:100EC000A62000F097F88D2000F094F8142000F090
:100ED00091F8AF2000F08EF8FFF7DAFE10BD10B5E4
:100EE0000246012000E050430B1EA1F10101FAD19E
:100EF00010BD70B505460C4645F0B00000F07AF81C
:100F0000102141EA141000F075F804F00F0000F011
:100F100071F870BD2DE9F04105460E461746721E68
:100F2000D206110E6A1E5206100EFFF7E2FF0024D1
:100F300009E0A7F12001134A02EB0111085D00F05E
:100F400069F8601CC4B2082CF3DB721ED206110EC5
:100F50006A1E012303EB4202D0B2FFF7CAFF00244E
:100F60000BE0A7F12001074A02EB011204F108018E
:100F7000505C00F04FF8601CC4B2082CF1DBBDE8F7
:100F8000F0810000BC1100082DE9F04780460E46B4
:100F900017461D46002415E0281B411E0A20FFF7B6
:100FA0009EFFB7FBF0F00A21B0FBF1F201FB12004B
:100FB00000F130093019C1B24A464046FFF7AAFF96
:100FC000601CC4B2AC42E7DBBDE8F0872DE9F0411C
:100FD00007460E461546002407E02A5D3019C1B2C7
:100FE0003846FFF797FF601CC4B2285D0028F4D193
:100FF000BDE8F08110B50446FFF7DEFE7820FFF76C
:101000009BFE0020FFF798FE2046FFF795FEFFF7B6
:10101000FBFE10BD10B50446FFF7CEFE7820FFF7AB
:101020008BFE4020FFF788FE2046FFF785FEFFF786
:10103000EBFE10BD2DE9FF4707460C4615461E4640
:10104000DDE90D9ADDF830803846FFF7B9FB002066
:10105000ADF80A00ADF80600ADF80840ADF8045050
:101060008DF80C0001A93846FFF7B0FBCEB1012185
:101070003846FFF779FB012211463846FFF797FB08
:101080004FF4A060FFF7D4F98DF8008001208DF8AF
:1010900003008DF801908DF802A06846FFF790F9E3
:1010A00000BFBDE8FF8700000EB500BF0121102082
:1010B000FFF7CAF900BF0520022136220123CDE93E
:1010C00000210290472240F2E7310248FFF7B2FFC9
:1010D0000EBD00000010004010B501210148FFF7CF
:1010E00049FB10BD0010004008B500BF01210420DD
:1010F000FFF7BAF900BF00BF01210420FFF7B4F9E0
:1011000000BF18208DF803000420ADF80000032074
:101110008DF8020069460748FFF7B3F848208DF8BC
:1011200003000820ADF8000069460248FFF7A9F85F
:1011300008BD00000008014000B585B0FFF7D4FFEE
:1011400000BF01214804FFF77FF900BF4FF4E130F1
:1011500001900020ADF810000C20ADF80E0000202A
:10116000ADF80C00ADF80A00ADF8080001A912486E
:10117000FFF730FC012240F225510F48FFF705FC34
:101180004FF4A060FFF754F926208DF800000120ED
:101190008DF803008DF801008DF802006846FFF716
:1011A0000FF901210448FFF7D7FB40210248FFF760
:1011B000BBFB05B000BD0000004400400000000083
:1011C000000000000000000000000000000000F827
:1011D00000000000000000333000000000100C068A
:1011E000100C0600000000000000000040C0784025
:1011F000C0784000043F04043F040400007088FCF1
:1012000008300000001820FF211E0000F008F00048
:10121000E018000000211C031E211E0000F00888B9
:10122000700000001E2123241927211010160E0023
:10123000000000000000000000000000000000E0CE
:1012400018040200000000071820400000020418E3
:10125000E00000000040201807000000404080F03F
:10126000804040000202010F01020200000000F075
:10127000000000000101011F010101000000000049
:101280000000000080B070000000000000000000BE
:101290000000000000010101010101010000000047
:1012A00000000000003030000000000000000000DE
:1012B00080601804006018060100000000E01008BB
:1012C0000810E000000F102020100F00001010F890
:1012D000000000000020203F2020000000700808CF
:1012E000088870000030282422213000003008884F
:1012F000884830000018202020110E000000C02077
:1013000010F8000000070424243F240000F8088897
:10131000880808000019212020110E0000E0108824
:1013200088180000000F112020110E000038080856
:10133000C83808000000003F000000000070880866
:1013400008887000001C222121221C0000E01008E7
:101350000810E0000000312222110F00000000C040
:10136000C0000000000000303000000000000080DD
:1013700000000000000080600000000000008040CD
:1013800020100800000102040810200040404040E6
:101390004040400004040404040404000008102039
:1013A000408000000020100804020100007048087E
:1013B0000808F0000000003036010000C030C828E6
:1013C000E810E0000718272423140B000000C038A1
:1013D000E0000000203C23020227382008F888881B
:1013E00088700000203F202020110E00C030080827
:1013F00008083800071820202010080008F80808FE
:101400000810E000203F202020100F0008F88888F6
:10141000E8081000203F20202320180008F88888C2
:10142000E8081000203F200003000000C03008083A
:101430000838000007182020221E020008F80800C3
:101440000008F808203F210101213F20000808F88A
:10145000080800000020203F2020000000000808AD
:10146000F8080800C08080807F00000008F888C06D
:1014700028180800203F20012638200008F808001E
:1014800000000000203F20202020300008F8F80055
:10149000F8F80800203F003F003F200008F830C067
:1014A0000008F808203F200007183F00E010080857
:1014B0000810E0000F10202020100F0008F8080886
:1014C0000808F000203F210101010000E010080899
:1014D0000810E0000F18242438504F0008F88888BE
:1014E00088887000203F2000030C3020007088089E
:1014F000080838000038202121221C00180808F8AC
:10150000080818000000203F2000000008F808002C
:101510000008F808001F202020201F0008788800FD
:1015200000C83808000007380E010000F80800F86D
:101530000008F800033C0700073C03000818688017
:101540008068180820302C03032C30200838C8008D
:10155000C83808000000203F2000000010080808DC
:10156000C83808002038262120201800000000FE7E
:10157000020202000000007F40404000000C30C02A
:1015800000000000000000010638C0000002020256
:10159000FE000000004040407F0000000000040208
:1015A0000202040000000000000000000000000033
:1015B0000000000080808080808080800002020423
:1015C000000000000000000000000000000080801B
:1015D000808000000019242222223F2008F8008089
:1015E00080000000003F112020110E00000000804C
:1015F00080800000000E11202020110000000080DB
:101600008088F800000E112020103F20000080800C
:1016100080800000001F222222221300008080F020
:10162000888888180020203F20200000000080804B
:1016300080808000006B94949493600008F8008090
:1016400080800000203F210000203F2000809898EB
:10165000000000000020203F20200000000000804B
:101660009898000000C08080807F000008F800008B
:1016700080808000203F24022D302000000808F8E0
:10168000000000000020203F20200000808080809B
:1016900080808000203F20003F20003F808000802D
:1016A00080800000203F210000203F20000080803B
:1016B00080800000001F202020201F0080800080EC
:1016C0008000000080FFA12020110E00000000809B
:1016D00080808000000E112020A0FF80808080008C
:1016E0008080800020203F212000010000008080B9
:1016F000808080000033242424241900008080E0AE
:10170000808000000000001F20200000808000007A
:1017100000808000001F202020103F20808080005B
:101720000080808000010E3008060100808000806B
:10173000008080800F300C030C300F000080800090
:10174000808080000020312E0E31200080808000BB
:101750000080808080818E7018060100008080806B
:10176000808080000021302C222130000000000009
:10177000807C020200000000003F404000000000AA
:10178000FF00000000000000FF0000000002027CDB
:10179000800000000040403F000000000006010102
:1017A000020204040000000000000000CC17000842
:1017B000000000203C0000006C0100080818000830
:1017C0003C000020640600008801000800000000C2
:1017D0000000000000000000000000000000010206
:1017E00003040102030406070809020406080000B6
:1017F0000000000000A24A040000000000000000F9
:081800000102030406070809B8
:0400000508000131BD
:00000001FF
